{
  "contractName": "Adoption",
  "abi": [
    {
      "constant": true,
      "inputs": [
        {
          "name": "",
          "type": "uint256"
        }
      ],
      "name": "adopters",
      "outputs": [
        {
          "name": "",
          "type": "address"
        }
      ],
      "payable": false,
      "stateMutability": "view",
      "type": "function"
    },
    {
      "constant": true,
      "inputs": [
        {
          "name": "",
          "type": "uint256"
        }
      ],
      "name": "IfMatch",
      "outputs": [
        {
          "name": "",
          "type": "bool"
        }
      ],
      "payable": false,
      "stateMutability": "view",
      "type": "function"
    },
    {
      "constant": false,
      "inputs": [
        {
          "name": "ID",
          "type": "uint256"
        }
      ],
      "name": "adopt",
      "outputs": [
        {
          "name": "",
          "type": "uint256"
        }
      ],
      "payable": false,
      "stateMutability": "nonpayable",
      "type": "function"
    },
    {
      "constant": true,
      "inputs": [],
      "name": "getAdopters",
      "outputs": [
        {
          "name": "",
          "type": "address[16]"
        }
      ],
      "payable": false,
      "stateMutability": "view",
      "type": "function"
    },
    {
      "constant": false,
      "inputs": [],
      "name": "IsAdressMatch",
      "outputs": [
        {
          "name": "",
          "type": "bool[16]"
        }
      ],
      "payable": false,
      "stateMutability": "nonpayable",
      "type": "function"
    }
  ],
  "bytecode": "0x608060405234801561001057600080fd5b50610590806100206000396000f30060806040526004361061006d576000357c0100000000000000000000000000000000000000000000000000000000900463ffffffff1680631c2713c8146100725780633de4eb17146100c557806343ae80d3146101185780638588b2c514610185578063f9362d48146101c6575b600080fd5b34801561007e57600080fd5b5061008761020b565b6040518082601060200280838360005b838110156100b2578082015181840152602081019050610097565b5050505090500191505060405180910390f35b3480156100d157600080fd5b506100da6103c8565b6040518082601060200280838360005b838110156101055780820151818401526020810190506100ea565b5050505090500191505060405180910390f35b34801561012457600080fd5b5061014360048036038101908080359060200190929190505050610449565b604051808273ffffffffffffffffffffffffffffffffffffffff1673ffffffffffffffffffffffffffffffffffffffff16815260200191505060405180910390f35b34801561019157600080fd5b506101b06004803603810190808035906020019092919050505061047e565b6040518082815260200191505060405180910390f35b3480156101d257600080fd5b506101f1600480360381019080803590602001909291905050506104f3565b604051808215151515815260200191505060405180910390f35b61021361051c565b600080339150600090505b601081101561035f5760008160108110151561023657fe5b0160009054906101000a900473ffffffffffffffffffffffffffffffffffffffff1673ffffffffffffffffffffffffffffffffffffffff168273ffffffffffffffffffffffffffffffffffffffff1614156102bc57600160108260108110151561029c57fe5b602091828204019190066101000a81548160ff0219169083151502179055505b6000816010811015156102cb57fe5b0160009054906101000a900473ffffffffffffffffffffffffffffffffffffffff1673ffffffffffffffffffffffffffffffffffffffff168273ffffffffffffffffffffffffffffffffffffffff1614151561035257600060108260108110151561033257fe5b602091828204019190066101000a81548160ff0219169083151502179055505b808060010191505061021e565b601080806020026040519081016040528092919082601080156103bc576020028201916000905b82829054906101000a900460ff161515815260200190600101906020826000010492830192600103820291508084116103865790505b50505050509250505090565b6103d0610540565b600060108060200260405190810160405280929190826010801561043f576020028201915b8160009054906101000a900473ffffffffffffffffffffffffffffffffffffffff1673ffffffffffffffffffffffffffffffffffffffff16815260200190600101908083116103f5575b5050505050905090565b60008160108110151561045857fe5b016000915054906101000a900473ffffffffffffffffffffffffffffffffffffffff1681565b60008082101580156104915750600f8211155b151561049c57600080fd5b336000836010811015156104ac57fe5b0160006101000a81548173ffffffffffffffffffffffffffffffffffffffff021916908373ffffffffffffffffffffffffffffffffffffffff160217905550819050919050565b60108160108110151561050257fe5b60209182820401919006915054906101000a900460ff1681565b61020060405190810160405280601090602082028038833980820191505090505090565b610200604051908101604052806010906020820280388339808201915050905050905600a165627a7a7230582030a0cd563650d34db5f0559f4712b83378fd5ee7404e9f1f625a60019481e49f0029",
  "source": "pragma solidity ^0.4.17;\r\n\r\ncontract Adoption {\r\n\r\n  // claim the variables\r\n  address[16] public adopters;  \r\n  bool[16] public IfMatch;\r\n\r\n    // the adoption function;'.,,\r\n  function adopt(uint ID) public returns (uint) {\r\n    require(ID >= 0 && ID <= 15);  // make sure id is in [0,15]\r\n                                         // otherwise fall back\r\n    //msg.sender is the address of the people using this function\r\n    adopters[ID] = msg.sender;        // save the address\r\n    return ID;\r\n  }\r\n\r\n\r\n  // the getAdopters function\r\n  function getAdopters() public view returns (address[16]) {\r\n    return adopters;\r\n  }\r\n\r\n  function IsAdressMatch() public returns (bool[16]) {\r\n       address current_address = msg.sender; \r\n       for (uint i = 0; i < adopters.length; i++) {\r\n           if (current_address == adopters[i])\r\n           {\r\n               IfMatch[i] = true;\r\n           }\r\n           if (current_address != adopters[i])\r\n           {\r\n               IfMatch[i] = false;\r\n           }\r\n       }\r\n       return IfMatch;\r\n  }\r\n\r\n}",
  "sourcePath": "C:\\Users\\Hanzhang Qin\\Documents\\GitHub\\ShootingPlanet\\contracts\\Adoption.sol",
  "compiler": {
    "name": "solc",
    "version": "0.4.24+commit.e67f0147.Emscripten.clang"
  },
  "schemaVersion": "2.0.1",
  "updatedAt": "2018-12-06T17:05:31.681Z"
}