{
  "contractName": "MetaCoin",
  "abi": [
    {
      "constant": true,
      "inputs": [
        {
          "name": "",
          "type": "uint256"
        }
      ],
      "name": "IfSuccess",
      "outputs": [
        {
          "name": "",
          "type": "bool"
        }
      ],
      "payable": false,
      "stateMutability": "view",
      "type": "function"
    },
    {
      "inputs": [],
      "payable": false,
      "stateMutability": "nonpayable",
      "type": "constructor"
    },
    {
      "anonymous": false,
      "inputs": [
        {
          "indexed": true,
          "name": "_from",
          "type": "address"
        },
        {
          "indexed": true,
          "name": "_to",
          "type": "address"
        },
        {
          "indexed": false,
          "name": "_value",
          "type": "uint256"
        }
      ],
      "name": "Transfer",
      "type": "event"
    },
    {
      "constant": false,
      "inputs": [
        {
          "name": "receiver",
          "type": "address"
        },
        {
          "name": "amount",
          "type": "uint256"
        }
      ],
      "name": "sendCoin",
      "outputs": [
        {
          "name": "",
          "type": "bool[1]"
        }
      ],
      "payable": false,
      "stateMutability": "nonpayable",
      "type": "function"
    },
    {
      "constant": false,
      "inputs": [
        {
          "name": "amount",
          "type": "uint256"
        }
      ],
      "name": "CheckFeasibility",
      "outputs": [
        {
          "name": "",
          "type": "bool[1]"
        }
      ],
      "payable": false,
      "stateMutability": "nonpayable",
      "type": "function"
    },
    {
      "constant": true,
      "inputs": [
        {
          "name": "addr",
          "type": "address"
        }
      ],
      "name": "getBalanceInEth",
      "outputs": [
        {
          "name": "",
          "type": "uint256"
        }
      ],
      "payable": false,
      "stateMutability": "view",
      "type": "function"
    },
    {
      "constant": true,
      "inputs": [
        {
          "name": "addr",
          "type": "address"
        }
      ],
      "name": "getBalance",
      "outputs": [
        {
          "name": "",
          "type": "uint256"
        }
      ],
      "payable": false,
      "stateMutability": "view",
      "type": "function"
    }
  ],
  "bytecode": "0x608060405234801561001057600080fd5b50612710600160003273ffffffffffffffffffffffffffffffffffffffff1673ffffffffffffffffffffffffffffffffffffffff168152602001908152602001600020819055506106ce806100666000396000f30060806040526004361061006d576000357c0100000000000000000000000000000000000000000000000000000000900463ffffffff1680630d74e90e14610072578063274e637a146100b75780637bd703e81461012057806390b98a1114610177578063f8b2cb4f14610200575b600080fd5b34801561007e57600080fd5b5061009d60048036038101908080359060200190929190505050610257565b604051808215151515815260200191505060405180910390f35b3480156100c357600080fd5b506100e260048036038101908080359060200190929190505050610280565b6040518082600160200280838360005b8381101561010d5780820151818401526020810190506100f2565b5050505090500191505060405180910390f35b34801561012c57600080fd5b50610161600480360381019080803573ffffffffffffffffffffffffffffffffffffffff169060200190929190505050610404565b6040518082815260200191505060405180910390f35b34801561018357600080fd5b506101c2600480360381019080803573ffffffffffffffffffffffffffffffffffffffff169060200190929190803590602001909291905050506104c4565b6040518082600160200280838360005b838110156101ed5780820151818401526020810190506101d2565b5050505090500191505060405180910390f35b34801561020c57600080fd5b50610241600480360381019080803573ffffffffffffffffffffffffffffffffffffffff169060200190929190505050610636565b6040518082815260200191505060405180910390f35b60008160018110151561026657fe5b60209182820401919006915054906101000a900460ff1681565b61028861067f565b81600160003373ffffffffffffffffffffffffffffffffffffffff1673ffffffffffffffffffffffffffffffffffffffff1681526020019081526020016000205410156103695760008060006001811015156102e057fe5b602091828204019190066101000a81548160ff021916908315150217905550600060018060200260405190810160405280929190826001801561035d576020028201916000905b82829054906101000a900460ff161515815260200190600101906020826000010492830192600103820291508084116103275790505b505050505090506103ff565b600160008060018110151561037a57fe5b602091828204019190066101000a81548160ff02191690831515021790555060006001806020026040519081016040528092919082600180156103f7576020028201916000905b82829054906101000a900460ff161515815260200190600101906020826000010492830192600103820291508084116103c15790505b505050505090505b919050565b600073__ConvertLib____________________________6396e4ee3d61042984610636565b60026040518363ffffffff167c0100000000000000000000000000000000000000000000000000000000028152600401808381526020018281526020019250505060206040518083038186803b15801561048257600080fd5b505af4158015610496573d6000803e3d6000fd5b505050506040513d60208110156104ac57600080fd5b81019080805190602001909291905050509050919050565b6104cc61067f565b81600160003373ffffffffffffffffffffffffffffffffffffffff1673ffffffffffffffffffffffffffffffffffffffff1681526020019081526020016000206000828254039250508190555081600160008573ffffffffffffffffffffffffffffffffffffffff1673ffffffffffffffffffffffffffffffffffffffff168152602001908152602001600020600082825401925050819055508273ffffffffffffffffffffffffffffffffffffffff163373ffffffffffffffffffffffffffffffffffffffff167fddf252ad1be2c89b69c2b068fc378daa952ba7f163c4a11628f55a4df523b3ef846040518082815260200191505060405180910390a36000600180602002604051908101604052809291908260018015610629576020028201916000905b82829054906101000a900460ff161515815260200190600101906020826000010492830192600103820291508084116105f35790505b5050505050905092915050565b6000600160008373ffffffffffffffffffffffffffffffffffffffff1673ffffffffffffffffffffffffffffffffffffffff168152602001908152602001600020549050919050565b6020604051908101604052806001906020820280388339808201915050905050905600a165627a7a723058202773a7476e448237ac27cd287dec48297eda3c4f5c5d2577c2ac6bb3cd069b6f0029",
  "source": "pragma solidity ^0.4.18;\n\nimport \"./ConvertLib.sol\";\n\n// This is just a simple example of a coin-like contract.\n// It is not standards compatible and cannot be expected to talk to other\n// coin/token contracts. If you want to create a standards-compliant\n// token, see: https://github.com/ConsenSys/Tokens. Cheers!\n\ncontract MetaCoin {\nbool[1] public IfSuccess;\n\n\tmapping (address => uint) balances;\n\n\tevent Transfer(address indexed _from, address indexed _to, uint256 _value);\n\n\tconstructor() public {\n\t\t// Give some amount of coins to the initial account\n\t\tbalances[tx.origin] = 10000;\n\t}\n\n\tfunction sendCoin(address receiver, uint amount) public returns (bool[1]) {\n\t\t// Check if balance is sufficient for the payment amount\n\t\tbalances[msg.sender] -= amount;\n\t\tbalances[receiver] += amount;\n\t\temit Transfer(msg.sender, receiver, amount);\n\t\treturn IfSuccess;\n\t}\n\n\tfunction CheckFeasibility(uint amount) public returns (bool[1])\n\t{\n\t\tif (balances[msg.sender] < amount) \n\t\t{\n\t\t\tIfSuccess[0] = false;\n\t\t\treturn IfSuccess;\n\t\t}\n\t\tIfSuccess[0] = true;\n\t\treturn IfSuccess;\n\t}\n\n\tfunction getBalanceInEth(address addr) public view returns(uint){\n\t\treturn ConvertLib.convert(getBalance(addr),2);\n\t}\n\n\tfunction getBalance(address addr) public view returns(uint) {\n\t\treturn balances[addr];\n\t}\n}\n",
  "sourcePath": "C:\\Users\\Hanzhang Qin\\Documents\\GitHub\\ShootingPlanet\\contracts\\MetaCoin.sol",
  "compiler": {
    "name": "solc",
    "version": "0.4.24+commit.e67f0147.Emscripten.clang"
  },
  "schemaVersion": "2.0.1",
  "updatedAt": "2018-12-06T17:05:31.684Z"
}